:100000000C9496180C94C7180C94C7180C94C71825
:100010000C94C7180C94C7180C94C7180C94C718E4
:100020000C94C7180C94C7180C94C7180C94C718D4
:100030000C94C7180C94C7180C94C7180C94C718C4
:100040000C94C7180C9486AE0C94C7180C94C7185F
:100050000C94C7180C94C7180C949D5E0C94405EC9
:100060000C94C7180C94E5550C94C7180C94C71839
:100070000C94C7180C94C7180C94C7180C94C71884
:100080000C94C7180C94C7180C94C7180C94C71874
:100090000C94C7180C94C7180C94C7180C94FC83C4
:1000A0000C94C7180C94C7180C94C7180C94C71854
:1000B0000C94C7180C94C7180C94C7180C94C71844
:1000C0000C94C7180C94C7180C94C7180C94C71834
:1000D0000C94C7180C94C7180C94C7180C94C71824
:1000E0000C94C718A930AC30B030B430B830BC3044
:1000F0002631C030C430C9302631CE30D430D8306B
:10010000DE30E230E6302631EA30EE30F4302631AF
:10011000FA30003102310431063108310A310C3134
:100120000E31103112311431163118311A311C319F
:100130001E31A9302A312A312A312A312A31263179
:100140002A312A312A3126312A31D630DA30E030CC
:10015000E430E8302631EC30F130F7302631FD3034
:10016000003102310431063108310A310C310E31CF
:10017000103112311431163118311A311C311E313F
:10018000BE5CC15CB05CB45CB85CF85CC55CC95C6E
:10019000CF5CD35CD75CDD5CE15CE55CF85CEB5C80
:1001A000EF5CF35C6F5D745D795D835D8D5D065E14
:1001B000975D9F5DA75DB15DBB5DC55DD45DDE5D97
:1001C000065EE85DF25DFC5DFF72FF72027305730F
:1001D0000B730E731173147319730873084AD73BAA
:1001E0003BCE016E84BCBFFDC12F3D6C74319ABD06
:1001F00056833DDA3D00C77F11BED9E4BB4C3E912A
:100200006BAAAABE000000803F05A84CCDB2D44E18
:10021000B93836A9020C50B9918688083CA6AAAA1A
:100220002ABE000000803F00436172642065727244
:100230006F723A004E6F74205344207072696E746E
:10024000696E67002F005344207072696E74696E86
:1002500067206279746520002E0044656C657469BE
:100260006F6E206661696C65642C2046696C653A26
:10027000200046696C652064656C657465643A00AD
:100280002E006F70656E206661696C65642C204677
:10029000696C653A2000504944204175746F74754B
:1002A0006E652066696E6973686564212050757497
:1002B00020746865204B702C204B6920616E64208F
:1002C0004B6420636F6E7374616E747320696E7417
:1002D0006F20436F6E66696775726174696F6E2E09
:1002E0006800504944204175746F74756E652066CE
:1002F00061696C6564212074696D656F7574002097
:10030000403A006F6B20543A006F6B20423A005025
:100310004944204175746F74756E65206661696C1F
:100320006564212054656D70657261747572652015
:10033000746F6F206869676800204B643A20002062
:100340004B693A2000204B703A200020436C6173C7
:1003500069632050494420002054753A2000204B06
:10036000753A2000206D61783A2000206D696E3A60
:10037000200020643A200020626961733A20000D59
:100380000A003F0056657273696F6E204653302E27
:1003900031000D0A00556E6B6E6F776E20636F6DC6
:1003A0006D616E643A2000544553540D0A002200DA
:1003B000556E6B6E6F776E20636F6D6D616E643A14
:1003C000202200456C656374726F6E6963735F749D
:1003D0006573740020423A300020423A31006F6B5E
:1003E00020523A002200556E6B6E6F776E20636F5D
:1003F0006D6D616E643A2022007A5F6D696E3A20FD
:1004000000795F6D696E3A2000785F6D696E3A2001
:10041000005A3A00593A0020436F756E7420583ADA
:100420002000453A005A3A00593A00583A004649E5
:10043000524D574152455F4E414D453A4D61726CA8
:10044000696E20556C74696D616B6572323B205327
:100450007072696E7465722F6772626C206D617361
:1004600068757020666F722067656E362046495247
:100470004D574152455F55524C3A687474703A2F4B
:100480002F6769746875622E636F6D2F556C746980
:100490006D616B65722050524F544F434F4C5F5605
:1004A000455253494F4E3A312E30204D4143484931
:1004B0004E455F545950453A556C74696D616B6592
:1004C000722045585452554445525F434F554E543F
:1004D0003A310A0020423A0020453A00543A0020BE
:1004E000573A0020453A00543A002042403A002052
:1004F000403A00202F0020423A00202F006F6B204E
:10050000543A002569206D696E2C20256920736599
:100510006300456E642066696C65206C69737400C5
:10052000426567696E2066696C65206C697374004A
:1005300043504500435045004350450055504554F5
:10054000004350450041425300504C410020205090
:100550006C616E6E6572427566666572427974652D
:10056000733A20002046726565204D656D6F727983
:100570003A20004A616E2032342032303137004355
:100580006F6D70696C65643A200056657273696FAF
:100590006E204653302E3100207C20417574686FE8
:1005A000723A20004A616E203234203230313720D6
:1005B00032323A34313A353900204C617374205567
:1005C0007064617465643A2000312E302E30004D25
:1005D00061726C696E200020536F6674776172657A
:1005E00020526573657400205761746368646F6797
:1005F000205265736574002042726F776E206F75AC
:1006000074205265736574002045787465726E615C
:100610006C20526573657400506F77657255700079
:100620007374617274004D383420582059205A2058
:1006300045006563686F3A00256920686F757273BD
:10064000202569206D696E7574657300446F6E6551
:10065000207072696E74696E672066696C650050FF
:1006600072696E7465722073746F70706564206453
:10067000756520746F206572726F72732E204669E3
:100680007820746865206572726F7220616E6420D4
:10069000757365204D39393920746F207265737414
:1006A0006172742E202854656D7065726174757264
:1006B000652069732072657365742E2053657420FC
:1006C00069742061667465722072657374617274F6
:1006D000696E6729006F6B004E6F204C696E652054
:1006E0004E756D6265722077697468206368656312
:1006F0006B73756D2C204C617374204C696E653A78
:1007000020004E6F20436865636B73756D207769B9
:100710007468206C696E65206E756D6265722C2040
:100720004C617374204C696E653A200063686563A0
:100730006B73756D206D69736D617463682C204CEB
:10074000617374204C696E653A20004C696E6520B7
:100750004E756D626572206973206E6F74204C61F6
:100760007374204C696E65204E756D6265722B3115
:100770002C204C617374204C696E653A20004572E0
:10078000726F723A004D313130006572726F7220B3
:1007900077726974696E6720746F2066696C650092
:1007A000205A3A0020593A0020583A00656E647386
:1007B000746F7073206869743A20006563686F3ADB
:1007C00000446F6E6520736176696E672066696CA0
:1007D000652E006F6B004D3239004300432F0043FC
:1007E0006C69636B20746F2072657475726E004E55
:1007F0006F7A7A6C652074656D706572617475725C
:10080000653A0025004272696768746E657373000B
:1008100025004D6174657269616C20666C6F7700AC
:10082000250046616E207370656564002500507276
:10083000696E742073706565640054554E450052AE
:10084000657472616374206C656E677468003F3F05
:100850003F00526574726163742073706565640053
:100860003C2052455455524E006D6D2F7365630008
:100870006D6D006D6D2F73656300526574726163F9
:1008800074207370656564006D6D005265747261EB
:100890006374206C656E677468005245545241431E
:1008A00054494F4E004D36303120583520593520AF
:1008B0005A2569204C25690020746F6F206C6F6E7B
:1008C0006720657874727573696F6E2070726576D3
:1008D000656E7465640020636F6C64206578747263
:1008E0007573696F6E2070726576656E74656400ED
:1008F0006563686F3A002073656300206D696E0060
:1009000020686F75720020686F7572730047312020
:10091000462569205A2569205825692059256900EE
:10092000473238205A3020583020593000627569DB
:100930006C64706C6174652E006F662061646A750A
:100940007374696E6720796F7572007468726F7561
:100950006768207468652070726F636573730049FF
:100960002077696C6C20677569646520796F750004
:1009700043414E43454C00434F4E54494E5545006C
:10098000473120462569205A3000473120462569E5
:1009900020582569205925690047312046256920BE
:1009A0005A350066726F6D20746865206275696CD7
:1009B00064706C6174652E0061206D696C6C696D8A
:1009C00065746572206177617900756E74696C2059
:1009D000746865206E6F7A7A6C6520697300526F57
:1009E000746174652074686520627574746F6E003C
:1009F000312F3700434F4E54494E554500434F4E1B
:100A000054494E554500473120462569205A30004B
:100A10004731204625692058256920592569004716
:100A20003120462569205A350066726F6D20746842
:100A300065206275696C64706C6174652E00697301
:100A40002061206D696C6C696D65746572206177D9
:100A500061790073637265772074696C6C207468C7
:100A600065206E6F7A7A6C65005475726E206C65C5
:100A70006674206275696C64706C61746500322FF5
:100A80003700434F4E54494E55450066726F6D20F6
:100A9000746865206275696C64706C6174652E00A1
:100AA00069732061206D696C6C696D657465722075
:100AB000617761790073637265772074696C6C206B
:100AC000746865206E6F7A7A6C65005475726E205A
:100AD0007269676874206275696C64706C617465B2
:100AE00000332F3700434F4E54494E554500473190
:100AF00020462569205A3000473120462569205874
:100B000025692059256900473120462569205A3535
:100B100000746865206275696C64706C617465202E
:100B20006C6576656C2E00706170657220746F2044
:100B300066696E652D74756E65006E6F77207573CE
:100B4000652061207368656574206F66005265706A
:100B5000656174207468697320737465702C2062F9
:100B6000757400342F3700434F4E54494E5545009D
:100B700062697420726573697374616E63652E00B7
:100B8000756E74696C20796F75206665656C20617F
:100B9000006275696C64706C61746520616E6420BC
:100BA0006E6F7A7A6C6500536C69646520612070A1
:100BB00061706572206265747765656E00352F37E8
:100BC00000434F4E54494E554500434F4E54494EF5
:100BD000554500746865206C65667420636F726E9D
:100BE00065722E2E2E0052657065617420746869DE
:100BF0007320666F7200362F3700434F4E54494EB4
:100C00005545004731205A31350047323820583099
:100C1000205930205A300074686520726967687402
:100C200020636F726E65722E2E2E005265706561A4
:100C300074207468697320666F7200372F37004420
:100C40004F4E450052455455524E00414456414E78
:100C5000434544004255494C442D7C504C41544539
:100C6000003F3F3F00466163746F72792072657385
:100C700065740052756E74696D6520737461747368
:100C80000056657273696F6E004D6F74696F6E20E8
:100C900073657474696E677300526574726163740E
:100CA000696F6E2073657474696E67730053657441
:100CB0002066616E207370656564004D6F766520F7
:100CC0006D6174657269616C00496E736572742040
:100CD0006D6174657269616C004C6F77657220623A
:100CE00075696C64706C617465005261697365202C
:100CF0006275696C64706C61746500486F6D652025
:100D00006865616400486561747570206275696C1E
:100D100064706C61746500486561747570206E6FF5
:100D20007A7A6C65004C45442073657474696E670B
:100D300073003C2052455455524E005665727369FB
:100D40006F6E204653302E310025004300432F00A4
:100D50004300432F002500473238205830205930B7
:100D600000250046616E2073706565640047312080
:100D700046256920582569205925690047323820C1
:100D8000583020593000473930004731205A32302E
:100D90000047393100473238203000473238205878
:100DA0003020593000414456414E434544004300F1
:100DB000432F00436C69636B20746F2072657475F8
:100DC000726E004E6F7A7A6C652074656D70657214
:100DD00061747572653A004300432F00436C696388
:100DE0006B20746F2072657475726E00526F74613F
:100DF000746520746F2065787472756465004E6F39
:100E00007A7A6C652074656D70657261747572654F
:100E10003A0053657474696E67732053746F72651A
:100E200064002044002049002020204D3330312030
:100E300050005049442073657474696E67733A00BA
:100E4000205A0020590020204D32303620580048CA
:100E50006F6D65206F666673657420286D6D293A25
:100E600000204500205A0020580020420020540055
:100E700020204D323035205300416476616E636529
:100E800064207661726961626C65733A20533D4DEE
:100E9000696E20666565647261746520286D6D2FCA
:100EA00073292C20543D4D696E2074726176656CF7
:100EB00020666565647261746520286D6D2F7329E5
:100EC0002C20423D6D696E696D756D207365676D8F
:100ED000656E742074696D6520286D73292C205807
:100EE0003D6D6178696D756D205859206A65726B2A
:100EF00020286D6D2F73292C20205A3D6D61786953
:100F00006D756D205A206A65726B20286D6D2F7388
:100F1000292C2020453D6D6178696D756D20452037
:100F20006A65726B20286D6D2F7329002054002094
:100F3000204D323034205300416363656C6572612B
:100F400074696F6E3A20533D616363656C657261CD
:100F500074696F6E2C20543D7265747261637420E5
:100F6000616363656C65726174696F6E0020450032
:100F7000205A0020590020204D3230312058004D99
:100F80006178696D756D20416363656C657261742C
:100F9000696F6E20286D6D2F7332293A002045004D
:100FA000205A0020590020204D3230332058004D67
:100FB0006178696D756D20666565647261746573CD
:100FC00020286D6D2F73293A00204500205A0020FB
:100FD000590020204D393220580053746570732019
:100FE00070657220756E69743A0056303130005366
:100FF000746F7265642073657474696E67732072B0
:1010000065747269657665640048617264636F64D3
:1010100065642044656661756C74205365747469F9
:101020006E6773204C6F61646564006563686F3A36
:10103000002200656E717565696E672022002200CE
:10104000656E717565696E67202200000048430077
:101050000048430000394300000000000000000089
:101060000000000000000000000000000000000080
:1010700000000018070100A807140030082800B875
:10108000083C0038095000C0096400480A7800C8CC
:101090000A8C00480BA000C80BB400480CC800C85C
:1010A0000CDC00400DF000C00D0401380E1801B03A
:1010B0000E2C01280F4001A00F5401181068018860
:1010C000107C01001190013013F4014815580240C2
:1010D00017BC0228192003F01A8403A81CE8034057
:1010E0001E4C04202D20496E76616C696420657861
:1010F000747275646572206E756D62657220210070
:10110000B8002C01C8002701D8002201E0001D0111
:10111000F80018010801130118010E01300109013E
:10112000480104016001FF008001FA00A001F50000
:10113000C001F000E801EB001002E6003802E10017
:101140007002DC00A002D700E002D2002003CD0034
:101150006803C800C003C3001804BE007804B900C7
:10116000E004B4005805AF00D805AA006806A50041
:101170000007A000A8079B006008960028099100BE
:10118000000A8C00E00A8700D80B8200D80C7D0092
:10119000E80D7800000F730020106E004811690000
:1011A00078126400A0135F00C8145A00F0155500AF
:1011B0000817500010184B0008194600F01941009C
:1011C000C81A3C00881B3700381C3200D01C2D0088
:1011D000581D2800D01D2300301E1E00881E190037
:1011E000C81E1400081F0F00381F0A00601F0500EA
:1011F000801F00003A204578747275646572207310
:1012000077697463686564206F66662E204D415867
:1012100054454D502074726967676572656420217A
:10122000003A20457874727564657220737769742A
:1012300063686564206F66662E204D494E54454DA7
:101240005020747269676765726564202100546577
:101250006D7065726174757265206865617465642E
:1012600020626564207377697463686564206F66C3
:10127000662E204D415854454D5020747269676761
:1012800065726564202121004572726F723A000018
:10129000002100240027002A002D00300033000127
:1012A000010000040107010A0100002200250028B6
:1012B000002B002E0031003400020100000501085F
:1012C000010B0105050505070508080808020202CB
:1012D000020A0A08080404040401010101010101D1
:1012E000010303030303030303040707070C0C0CA8
:1012F0000C0C0C0C0C020202020606060606060680
:10130000060B0B0B0B0B0B0B0B010210202008081C
:101310001020401020408002010201080402010157
:101320000204081020408080402010080402018040
:101330000402018040201008040201080402010197
:1013400002040810204080010204081020408000A0
:10135000000A0B02090C0D0E08070304010000002F
:10136000000000000000000000000000000000007D
:10137000000000000000000000000012111000003A
:10138000000000000000000000000000000000005D
:10139000000000000043616E6E6F7420656E74651E
:1013A00072207375626469723A200053442043418D
:1013B00052440047312046313230303020583520F9
:1013C00059313000473238003B464C41564F523A73
:1013D000556C746947436F6465003B464C41564FFA
:1013E000523A556C746947436F6465004E6F2066CE
:1013F000696C657320666F756E6421004F4B004FFA
:101400004B0052656164696E6720636172642E2EC1
:101410002E00506C6561736520696E73657274206F
:1014200063617264004E6F2053442D434152442146
:1014300000507265706172696E6720746F207072FF
:10144000696E743A0048656174696E672075702E24
:101450002E2E0041424F52540054554E45005469BF
:101460006D65206C6566740054696D65206C6566F9
:101470007420756E6B6E6F776E0043004300486595
:101480006174696E67206275696C64706C61746503
:10149000004300430048656174696E6700507269DB
:1014A0006E74696E673A0050415553450054554E6D
:1014B000450054554E45004348414E47457C4D41FB
:1014C00054455249414C00524553554D457C50526C
:1014D000494E5400436F64653A0053442D63617272
:1014E00064210072656164696E67004572726F7293
:1014F000207768696C650052455455524E20544F10
:10150000204D41494E006F66207072696E74696E9D
:101510006720617265610054726965642070726948
:101520006E74696E67206F7574004552524F523A5F
:101530000052455455524E20544F204D41494E00C3
:1015400066726F6D2074686520736C696365722EB6
:101550000073657474696E672077697468207365B9
:101560007474696E67006F76657272696465206D68
:10157000616368696E6500546869732066696C65AB
:101580002077696C6C0043414E43454C00434F4EFD
:1015900054494E55450041626F727420746865204D
:1015A0007072696E743F004E4F00594553004300FE
:1015B0004320005072696E74657220636F6F6C69AE
:1015C0006E6720646F776E004241434B20544F207A
:1015D0004D454E5500746865207072696E742E001A
:1015E000596F752063616E2072656D6F766500506E
:1015F00072696E742066696E697368656400424141
:10160000434B20544F204D454E55004C45442042FD
:1016100072696768746E6573730052657472616392
:1016200074696F6E004D6174657269616C20666CDF
:101630006F770046616E207370656564004275695E
:101640006C64706C6174652074656D702E005465F7
:101650006D706572617475726500537065656400C4
:1016600041626F7274003C2052455455524E002521
:10167000002500250043004300430043002500509F
:1016800072696E74696E6720776974682055534279
:101690002E2E2E00202077616E68616F3364707289
:1016A000696E7465722E636F6D00476F20746F3AB8
:1016B0000058206F72205920737769746368207313
:1016C0007475636B0058206F7220592073776974AA
:1016D00063682062726F6B656E005A20737769745D
:1016E000636820737475636B005A20737769746341
:1016F000682062726F6B656E005361666574792055
:101700006369726375697400486561746572206508
:1017100072726F720054656D702073656E736F72B4
:10172000204245440054656D702073656E736F727E
:10173000004552524F52202D2053544F5050454493
:1017400000804000000000000000000000000000D9
:101750000000000000000000000000000000000089
:101760000000000000000000000000000000000079
:10177000000080C0C0C0C0E0E0F0F8F800F0F8F869
:10178000F0F0F0E0E0E0E0E0E0E0E0E0E0F0F0F0F9
:10179000F0F8F8FCFCFCFCFC7CCCF0F8F8F8F0F07D
:1017A000F0E0E0C0C0800000000000000000000089
:1017B0000000000000000000000000000000000029
:1017C0000000000000000000000000000000000019
:1017D0000000000000000000000000000000800089
:1017E00000008080C0C06080E0F0F8F8FCFCFCFEE7
:1017F000FFFFFFFFFFFFFFFFFFFF07F8FFFFFFFFF8
:10180000FFFFFFFFFFFFFFFFFFFFFFFFFFFFFFFFE8
:10181000FFFFFFFFFFFFFFE13EFFFFFFFFFFFFFFB7
:10182000FFFFFFFFFFFFFFFB820202030303020231
:10183000060E0C0400000000000000000000000084
:101840000000000000000000000000000000000098
:1018500000000000000000000000070EFEFFFFFF78
:10186000FFFFFFFFFFFFF0833FFFFFFFFFFFFFFFD3
:10187000FFFFFFFFFFFFFFFFFFFFFFFCE31FFFFF77
:10188000FFFFFFFFFFFFFFFFFFFFFFFFFFFFFFFF68
:10189000FFFFFFFFFFFFFFFFFE8F3FFFFFFFFFFF89
:1018A000FFFFFFFFFFFFFFFFFFF0E0000000000071
:1018B0000000000000000000000000000000000028
:1018C0000000000000000000000000000000000018
:1018D000000070E0E0C0DCFCFCF8F8FCFFFFFFFF5C
:1018E000FFFFFFFFFFFFFFFFFEFCFFEF1F3FFFBFFC
:1018F000DFDFFFEFDFFFFF7FFFFFFFFFFF3E0F3F59
:101900007F7F7FFFFFFFFFFFFFFFFFFFFFFFFFFF67
:10191000FF7F7F7F3F3F1F1FEFEFE0DFDFBF7F7F56
:10192000FFFFFFFFFF3FDFEFF7FDFFFCF8E0C0C068
:1019300000000000000000000000000000000000A7
:101940000000000000000000000000000000000097
:1019500000000001070F0F1F7FFFFFFFFFFFFFFFCA
:101960007F3F1F1F0F07030301000000000000015D
:10197000038FFFFFFFFFFFFF3F0E7E7E7E7C787CA4
:10198000FCF8F0C0000000000001010101000000AF
:1019900000000080C0F0F8FCFEFF7F7F7F7F3F3FAC
:1019A0001F0F0E0680C7FFFFFFFFFFFFFF1F0F0384
:1019B0000000000000000000000000000000000027
:1019C0000000000000000000000000000000000017
:1019D0000000008080808000000001818181010082
:1019E00000008080808000000000000080808080F7
:1019F0008101010101010180808080000000000060
:101A000000818181800000808080800000000000D3
:101A1000008081818101010101010080808080803E
:101A2000000000000101010101818181808080802E
:101A30008000000000000000000000000000000026
:101A40000000000000000000000000000000000096
:101A50000000003F7FFFFFC08000FFFFFFFFE0C0EE
:101A600000C0FFFFFF3F000000C0F8FFFFFF1FFFA7
:101A7000FFFCE0800000FFFFFFFFFF3F7EFCF8E07F
:101A8000C0FFFFFFFF0000FFFFFFFFF070707070EE
:101A900070FFFFFFFF00000080F0FEFFFF1FFFFF51
:101AA000FEE080000000F8FEFFBF0F0707070707F2
:101AB0000FFFFFFCF8000000000000000000000025
:101AC0000000000000000000000000000000000016
:101AD0000000000000010F1F3F3F1F0703071F3FCB
:101AE0003F1F0703000000183E3F3F0F070707078F
:101AF000071F3F3F3C000F3F3F3F3F0000000307F1
:101B00001F3F3F3F1F00003F3F3F3F0000000000DE
:101B1000003F3F3F3F00183C3F3F1F0707070707B5
:101B20000F3F3F3E380003070F1F3E3C3C3C3C3E0E
:101B30001F0F0F0301000000000000000000000064
:101B40000000004D41494E54454E414E4345004D25
:101B50004154455249414C005052494E5400434172
:101B60004E43454C004578706F727420746F20535B
:101B70004400496D706F72742066726F6D2053441B
:101B800000437573746F6D697A65003C205245544B
:101B900055524E00250046616E3A20004300430036
:101BA0002500466C6F773A006D6D004C6F61647371
:101BB00020616C6C206D6174657269616C73005397
:101BC0006176657320616C6C206D6174657269610A
:101BD0006C73004D6F646966792074686520736565
:101BE0007474696E6773004D4154455249414C000D
:101BF00053656C6563746564206D617465726961B9
:101C00006C3A004F4B00466C6F772025003F3F3FFA
:101C10000053746F72652061732070726573657410
:101C20000046616E004469616D65746572004865C7
:101C300061746564206275696C64706C61746500C0
:101C400054656D7065726174757265003C20524513
:101C50005455524E00250025006D6D004300430091
:101C600025004D6174657269616C20666C6F770048
:101C7000250046616E207370656564006D6D004DD2
:101C80006174657269616C204469616D6574657227
:101C90000043004275696C64706C61746520546522
:101CA0006D702E00430054656D70657261747572BD
:101CB00065004D4154455249414C003C2052455429
:101CC00055524E004E6577207072657365740050F2
:101CD000524553455453004D38340047323820584C
:101CE00030205930004731204625692045300047D3
:101CF000393220452569004D343031003C204241C5
:101D0000434B003C2052455455524E004E6F2069C3
:101D10006E666F20617661696C61626C65006D0052
:101D20006D004D6174657269616C3A200054696D93
:101D3000653A20003B4D4154455249414C3A003BE5
:101D400054494D453A00466F6C64657200000000CE
:101D5000000000005F00000007000700147F147FF0
:101D600014242A7F2A12231308646236495522500C
:101D70000005030000001C2241000041221C000855
:101D80002A1C2A0808083E080800503000000808ED
:101D9000080808006060000020100804023E514955
:101DA000453E00427F400042615149462141454B3A
:101DB000311814127F1027454545393C4A494930AE
:101DC00001710905033649494936064949291E006A
:101DD0003636000000563600000008142241141464
:101DE00014141441221408000201510906324979E1
:101DF000413E7E1111117E7F494949363E414141A4
:101E0000227F4141221C7F494949417F0909010143
:101E10003E414151327F0808087F00417F41002048
:101E200040413F017F081422417F404040407F02F3
:101E300004027F7F0408107F3E4141413E7F090933
:101E400009063E4151215E7F091929464649494903
:101E50003101017F01013F4040403F1F2040201FD2
:101E60007F2018207F63140814630304780403613F
:101E70005149454300007F4141020408102041417F
:101E80007F00000402010204404040404000010283
:101E9000040020545454787F48444438384444441F
:101EA00020384444487F3854545418087E090102AD
:101EB000081454543C7F0804047800447D400020FA
:101EC00040443D00007F10284400417F40007C04D6
:101ED0001804787C0804047838444444387C14148A
:101EE0001408081414187C7C08040408485454543A
:101EF00020043F4440203C4040207C1C2040201CCB
:101F00003C4030403C44281028440C5050503C4445
:101F100064544C44000836410000007F000000413A
:101F200036080008082A1C08081C2A080843004331
:101F30002F00436C69636B20746F20726574757237
:101F40006E004275696C64706C6174652074656DB7
:101F5000702E3A0056657273696F6E204653302EAC
:101F600031004A616E203234203230313720323233
:101F70003A34323A30310052657475726E006D0039
:101F8000204D61743A003A005072696E74696E6750
:101F90003A003A004D616368696E65206F6E206695
:101FA0006F723A0052657475726E00746F206465CA
:101FB0006661756C743F0052657365742065766563
:101FC00072797468696E67004E4F0059455300522C
:101FD000657472616374206C656E677468003F3F5E
:101FE0003F005265747261637420737065656400AC
:101FF0003C2052455455524E006D6D2F7365630061
:102000006D6D006D6D2F7365630052657472616351
:1020100074207370656564006D6D00526574726143
:102020006374206C656E6774680052455452414376
:1020300054494F4E003F3F3F0043757272656E74C6
:1020400020450043757272656E74205A00437572A4
:1020500072656E7420582F59004D61782073706539
:102060006564205A004D617820737065656420595D
:10207000004D6178207370656564205800582F59B1
:10208000204A65726B00416363656C6572617469B7
:102090006F6E003C2052455455524E006D41006D0C
:1020A00041006D41006D6D2F736563006D6D2F7381
:1020B0006563006D6D2F736563006D6D2F736563D0
:1020C000006D6D2F7365635E32006D410043757264
:1020D00072656E742045006D410043757272656EC5
:1020E00074205A006D410043757272656E742058F9
:1020F0002F59006D6D2F736563004D6178207370EB
:10210000656564205A006D6D2F736563004D6178BD
:102110002073706565642059006D6D2F73656300D1
:102120004D61782073706565642058006D6D2F7364
:10213000656300582F59204A65726B0030306D6D11
:102140002F7365635E3200416363656C6572617411
:10215000696F6E004D4F54494F4E003F3F3F002086
:10216000476C6F77207768656E20646F6E6500201E
:102170004F6E207768696C65207072696E74696E45
:10218000670020416C77617973204F6666002041BB
:102190006C77617973204F6E004272696768746E64
:1021A000657373003C2052455455524E002500255E
:1021B000004272696768746E657373004C45440031
:1021C00047323820583020593000473120462569A1
:1021D0002058256920592569004732382058302079
:1021E00059300052455455524E0053455454494EAF
:1021F0004753004348414E474500666F72206D616A
:1022000074657269616C2072656D6F76616C0048EF
:10221000656174696E67207072696E746865616467
:1022200000526576657273696E67206D61746572C0
:1022300069616C007C3C3E5E2B3D3F2F5B5D3B2C1F
:102240002A225C0053442063617264206F6B006F2C
:1022500070656E526F6F74206661696C656400769C
:102260006F6C756D652E696E6974206661696C6549
:1022700064004572726F723A00534420696E69744B
:10228000206661696C006563686F3A004D32340006
:102290004D3233202573006175746F25692E6700F8
:1022A00052656D6F7665206D6174657269616C0051
:1022B00043414E43454C005245414459006D6174C1
:1022C000657269616C20696E73657274696F6E0006
:1022D00048656174696E67207072696E74686561C3
:1022E0006420666F720061626F7665207468652095
:1022F0006172726F772E00796F7572206D616368FD
:10230000696E652C0066726F6D207468652062616D
:10231000636B73696465206F6600496E73657274E0
:10232000206E6577206D6174657269616C00434150
:102330004E43454C00524541445900466F72776107
:102340007264696E67206D6174657269616C0063A7
:102350006F6D6573206F757420746865206E6F7A79
:102360007A6C6500576169742074696C6C206D61CA
:1023700074657269616C0043414E43454C0052459F
:1023800041445900250046616E3A20004300430055
:102390002500466C6F773A006D6D004D41544552F3
:1023A00049414C00696E204D4154455249414C2EE3
:1023B00054585400746F207468652053442063613E
:1023C0007264005361766564206D61746572696141
:1023D0006C73004F6B000A0A006469616D65746577
:1023E000723D000A00666C6F773D000A0066616E00
:1023F0005F73706565643D000A006265645F7465C3
:102400006D70657261747572653D000A0074656D6A
:1024100070657261747572653D000A006E616D656C
:102420003D005B6D6174657269616C5D0A005265A7
:102430006164696E6720636172642E2E2E00506C99
:102440006561736520696E7365727420636172647F
:10245000004E6F2053442D43415244210066726F59
:102460006D207468652053442063617264004C6F72
:1024700061646564206D6174657269616C73004F9D
:102480006B006469616D6574657200666C6F7700DE
:1024900066616E5F7370656564006265645F746534
:1024A0006D70657261747572650074656D706572CA
:1024B0006174757265006E616D65005B6D61746558
:1024C0007269616C5D00466F756E64206F6E20638B
:1024D0006172642E004E6F206578706F7274206692
:1024E000696C650052656164696E6720636172643E
:1024F0002E2E2E00506C6561736520696E736572B7
:10250000742063617264004E6F2053442D43415226
:102510004421005072696E7465722068616C746544
:10252000642E206B696C6C28292063616C6C656477
:1025300021005072696E7465722073746F707065DB
:10254000642064756520746F206572726F72732EDB
:102550002046697820746865206572726F72206108
:102560006E6420757365204D39393920746F20727F
:102570006573746172742E202854656D7065726184
:10258000747572652069732072657365742E2053AB
:102590006574206974206166746572207265737455
:1025A000617274696E672900456E6473746F702080
:1025B0007374696C6C2070726573736564206166F6
:1025C000746572206261636B696E67206F66662E48
:1025D00020456E6473746F7020737475636B3F0075
:1025E0000000E0400000E0400000E040456E647301
:1025F000746F70206E6F74207072657373656420E1
:10260000616674657220686F6D696E6720646F77AC
:102610006E2E20456E6473746F702062726F6B65EE
:102620006E3F00456E6473746F70206E6F7420701F
:1026300072657373656420616674657220686F6D7E
:10264000696E6720646F776E2E20456E6473746FB9
:10265000702062726F6B656E3F00FFFFFF000048E5
:10266000430000484300003943000021104220632A
:10267000308440A550C660E770088129914AA16B5B
:10268000B18CC1ADD1CEE1EFF131121002733252F3
:1026900022B5529442F772D662399318837BB35AAB
:1026A000A3BDD39CC3FFF3DEE362244334200401C3
:1026B00014E664C774A44485546AA54BB5288509FB
:1026C00095EEE5CFF5ACC58DD55336722611163093
:1026D00006D776F6669556B4465BB77AA71997384B
:1026E00087DFF7FEE79DD7BCC7C448E5588668A7D3
:1026F000784008611802282338CCC9EDD98EE9AF9B
:10270000F9488969990AA92BB9F55AD44AB77A9632
:102710006A711A500A333A122AFDDBDCCBBFFB9EEA
:10272000EB799B588B3BBB1AABA66C877CE44CC502
:102730005C222C033C600C411CAEED8FFDECCDCD3A
:10274000DD2AAD0BBD688D499D977EB66ED55EF4D2
:102750004E133E322E511E700E9FFFBEEFDDDFFC8A
:10276000CF1BBF3AAF599F788F8891A981CAB1EB2F
:10277000A10CD12DC14EF16FE18010A100C230E358
:10278000200450254046706760B9839893FBA3DA14
:10279000B33DC31CD37FE35EF3B1029012F322D2A8
:1027A000323542145277625672EAB5CBA5A89589A4
:1027B000856EF54FE52CD50DC5E234C324A01481F8
:1027C000046674476424540544DBA7FAB79987B8B4
:1027D000975FE77EF71DC73CD7D326F2369106B048
:1027E0001657667676154634564CD96DC90EF92FB4
:1027F000E9C899E9898AB9ABA94458654806782798
:1028000068C018E1088238A3287DCB5CDB3FEB1E53
:10281000FBF98BD89BBBAB9ABB754A545A376A16E7
:102820007AF10AD01AB32A923A2EFD0FED6CDD4DE3
:10283000CDAABD8BADE89DC98D267C076C645C4537
:102840004CA23C832CE01CC10C1FEF3EFF5DCF7CF3
:10285000DF9BAFBABFD98FF89F176E367E554E7487
:102860005E932EB23ED10EF01E57726974696E6788
:1028700020746F2066696C653A20002E006F7065C9
:102880006E206661696C65642C2046696C653A202F
:10289000002E006F70656E206661696C65642C2087
:1028A00046696C653A200046696C652073656C6505
:1028B00063746564002053697A653A200046696C48
:1028C00065206F70656E65643A20002E006F70653C
:1028D0006E206661696C65642C2046696C653A20DF
:1028E0000024F4D43050C38E20C2A24017828B70D3
:1028F00011127A910D816CD90AA861E108C7586656
:1029000007615143061E4B5D05C145A7041A4111DD
:1029100004093D9803713931034036DB0265339178
:1029200002D4305402802E1D02632CEE01752AC59C
:1029300001B028A001102781018F2564012B244BB1
:1029400001E0223401AC211F018D200D01801FFC0C
:1029500000841EED00971DDF00B81CD200E61BC6E8
:1029600000201BBC00641AB200B219A8000A19A00A
:10297000006A189900D117910040178B00B5168492
:102980000031167E00B31579003A157300C7146F35
:102990000058146A00EE1366008813630025135E66
:1029A00000C7125B006C12570015125400C1115180
:1029B0000070114F0021114B00D61049008D1047B7
:1029C000004610440002104200C00F4000800F3E3D
:1029D00000420F3C00060F3B00CB0E3800930E3731
:1029E000005C0E3500270E3400F30D3200C10D31AE
:1029F00000900D3000600D2E00320D2D00050D2CC5
:102A000000D90C2B00AE0C2900850C29005C0C278A
:102A100000350C27000E0C2600E80B2400C40B2404
:102A200000A00B23007D0B23005A0B2100390B2142
:102A300000180B2000F80A1F00D90A1E00BB0A1E4E
:102A4000009D0A1D00800A1D00630A1C00470A1B26
:102A5000002C0A1B00110A1A00F7091A00DD0919D7
:102A600000C4091900AB091900920917007B091865
:102A700000630917004C09160036091600200916D4
:102A8000000A091500F5081500E0081400CC081428
:102A900000B8081400A4081400900813007D081260
:102AA000006B081300580812004608120034081181
:102AB00000230811001208110001081100F007108E
:102AC00000E0071000D0071000C0071000B0070F8B
:102AD00000A107100091070E0083070F0074070F75
:102AE0000065070E0057070E0049070E003B070D53
:102AF000002E070E0020070D0013070D0006070D1E
:102B000000F9060C00ED060D00E0060C00D4060CE2
:102B100000C8060C00BC060C00B0060C00A4060B96
:102B20000099060C008D060B0082060B0077060B41
:102B3000006C060B0061060A0057060B004C060AE3
:102B40000042060A0038060A002E060A0024060A79
:102B5000001A060A001006090007060A00FD05090A
:102B600000F4050900EB050900E2050900D9050993
:102B700000D0050900C7050900BE050900B5050814
:102B800000AD050800A50509009C0508009405088E
:102B9000008C050800840508007C05080074050801
:102BA000006C050700650508005D0507005605086F
:102BB000004E0507004705070040050800380507D7
:102BC00000310507002A050700230507001C05063C
:102BD00000160507000F0507000805060002050797
:102BE00000FB040600F5040700EE040600E80406F6
:102BF00000E2040700DB040600D5040600CF04064B
:102C000000C9040600C3040600BD040600B704069C
:102C100000B1040500AC040600A6040600A00405EB
:102C2000009B04060095040500900406008A040534
:102C30000085040500800406007A0405007504057B
:102C400000700405006B04050066040500610405BE
:102C5000005C04050057040500520405004D0405FE
:102C60000048040500430405003E0404003A04053E
:102C70000035040500300404002C0405002704047A
:102C800000230405001E0404001A040400160405B1
:102C900000110404000D04040009040500040404E8
:102CA0000000040400FC030400F8030400F403041F
:102CB00000F0030400EC030400E8030400E4030450
:102CC00000E0030400DC030400D8030400D4030480
:102CD00000D0030400CC030400C8030300C50303B1
:102CE0000024F404D9201BC40C5C0E9804C4095FB2
:102CF0000265077101F405F900FB04B3004804877D
:102D000000C10369005803550003034500BE023AA1
:102D1000008402310053022A002902250004022007
:102D200000E4011C00C8011900AF0117009801144C
:102D30000084011300710110006101100051010EA7
:102D40000043010D0036010B002B010B0020010B8D
:102D500000150109000C01090003010800FB00082F
:102D600000F3000800EB000700E4000600DE0006A8
:102D700000D8000600D2000600CC000500C7000500
:102D800000C2000500BD000400B9000400B5000445
:102D900000B1000400AD000400A9000400A5000378
:102DA00000A20003009F0004009B000300980003A2
:102DB000009500020093000300900003008D0002C4
:102DC000008B0003008800020086000200840003DC
:102DD00000810002007F0002007D0002007B0002F3
:102DE0000079000200770001007600020074000202
:102DF0000072000100710002006F0002006D00010E
:102E0000006C0002006A0001006900020067000116
:102E1000006600010065000100640002006200011C
:102E20000061000100600001005F0002005D000120
:102E3000005C0001005B0001005A00010059000124
:102E40000058000100570001005600010055000124
:102E50000054000100530000005300010052000123
:102E60000051000100500001004F0001004E000021
:102E7000004E0001004D0001004C0001004B00001D
:102E8000004B0001004A0001004900010048000019
:102E90000048000100470001004600000046000114
:102EA000004500000045000100440001004300000F
:102EB0000043000100420000004200010041000008
:102EC0000041000100400001003F0000003F000100
:102ED000003E0000003E0001003D0000003D0001FA
:102EE000003C0000003C0000003C0001003B0000F2
:102EF000003B0001003A0000003A000100390000E8
:102F000000390001003800000038000000380001DE
:102F100000370000003700010036000000360000D6
:102F200000360001003500000035000000350001CA
:102F300000340000003400000034000100330000C1
:102F400000330000003300010032000000320000B6
:102F500000320001003100000031000000310001AA
:102F6000003000000030000000300001002F0000A1
:102F7000002F0000002F0000002F0001002E000095
:102F8000002E0000002E0001002D0000002D00008A
:102F9000002D0000002D0001002C0000002C00007E
:102FA000002C0000002C0001002B0000002B000072
:102FB000002B0000002B0001002A0000002A000066
:102FC000002A0000002A000100290000002900005A
:102FD000002900000029000000290001002800004D
:102FE0000028000000280000002800000028000140
:102FF0000027000000270000002700000027000035
:103000000027000100260000002600000026000026
:103010000026000000260001002500000025000019
:10302000002500000025000000250000002500010B
:103030000024000000240000002400000024000000
:1030400000240001002300000023000000230000F2
:1030500000230000002300000023000000230001E3
:1030600000220000002200000022000000220000D8
:1030700000220000002200010021000000210000C9
:1030800000210000002100000021000000210000BC
:1030900000210001002000000020000000200000AE
:1030A00000200000002000000020000000200000A0
:1030B00000200001001F0000001F0000001F000092
:1030C000001F0000001F0000001F0000001F000183
:1030D000001E0000001E0000001E0000001E000078
:1030E00000526573656E643A20006F6B004E414E6E
:1030F000494E495459494E46CDCCCC3D0AD7233C84
:1031000017B7D13877CC2B329595E6241FB14F0AEB
:10311000000020410000C84200401C4620BCBE4CBC
:10312000CA1B0E5AAEC59D74DAC9B9C911241FBE97
:10313000CFEFD1E2DEBFCDBF00E00CBF14E0A0E0D6
:10314000B2E0EAE2FDEA01E00BBF02C007900D9297
:10315000A232B107D9F72AE1A2E2B4E001C01D9280
:10316000AE32B207E1F718E1C5E9D8E100E006C0E8
:1031700021970109802FFE010E94ACCAC439D107F2
:1031800080E00807A9F70E9430BD0C9483D60C9408
:1031900000002F923F924F925F926F927F928F9298
:1031A0009F92AF92BF92CF92DF92EF92FF920F93D6
:1031B0001F93CF93DF93CDB7DEB7CB56D1090FB6B0
:1031C000F894DEBF0FBECDBF1092990987E40E942C
:1031D000BB54F82E882309F420C30E94E1540E94B6
:1031E0001CCC6A30710509F48EC084F4623071051C
:1031F00081F124F477FF23C00C9489316330710589
:1032000081F164307105C1F10C9489316A35710521
:1032100009F4C3C254F46B30710509F40AC16C316E
:10322000710509F47CC10C9489316B35710509F481
:10323000B8C26C35710509F4B9C20C94893180911A
:10324000FF04811106C00E9445BB0E9486BA0C94FF
:1032500043378091FF04811104C00E94A9BC81E022
:1032600007C08091FF04811107C00E94A9BC80E0C3
:103270000E9446B70C94433780E50E94BB548823D4
:1032800039F00E94E1540E9421CC6B017C0103C003
:10329000C12CD12C760183E50E94BB54882361F0B8
:1032A0000E94E15420E030E04AE754E40E949FCEBF
:1032B0000E9421CC6B017C010E946A640E94345EF2
:1032C000C60ED71EE81EF91E0E94345E6093141AC3
:1032D0007093151A8093161A9093171A81E08093B1
:1032E00099090E94345E6C157D058E059F0510F0CE
:1032F0000C9489310E94D7610E94A0B60E94AC72E2
:103300000E94E03CEECF8091A40981110C94893198
:103310008091BB0D9091BC0DA091BD0DB091BE0DE3
:103320008093CF149093D014A093D114B093D2145F
:103330008091BF0D9091C00DA091C10DB091C20DB3
:103340008093D3149093D414A093D514B093D6142F
:103350008091C30D9091C40DA091C50DB091C60D83
:103360008093D7149093D814A093D914B093DA14FF
:10337000C090C70DD090C80DE090C90DF090CA0D57
:10338000E091E30D24E0E29FF0011124E152F24FBD
:10339000208131814281538160911F02709120020E
:1033A00080912102909122020E94B4CB9B01AC013A
:1033B000C701B6010E94D7CA9B01AC016093DB1420
:1033C0007093DC148093DD149093DE1480903802A7
:1033D00090903902A0903A02B0903B0280911B027B
:1033E00090911C02A0911D02B0911E0280933802A0
:1033F00090933902A0933A02B0933B02C701B60101
:103400000E94D7CA6093F6197093F7198093F81940
:103410009093F91981E08093A4090E9486BA809262
:10342000380290923902A0923A02B0923B020C9478
:1034300089318091A409882311F40C9489318091F9
:10344000BB0D9091BC0DA091BD0DB091BE0D8093B0
:10345000CF149093D014A093D114B093D214809130
:10346000BF0D9091C00DA091C10DB091C20D809380
:10347000D3149093D414A093D514B093D614809100
:10348000C30D9091C40DA091C50DB091C60D809350
:10349000D7149093D814A093D914B093DA14209130
:1034A000F6193091F7194091F8195091F919609176
:1034B000C70D7091C80D8091C90D9091CA0D0E94E1
:1034C000D8CA6093DB147093DC148093DD1490935E
:1034D000DE14C0903802D0903902E0903A02F090A9
:1034E0003B028091400290914102A0914202B09132
:1034F00043028093380290933902A0933A02B0932A
:103500003B021092A4090E9486BAC0923802D0925F
:103510003902E0923A02F0923B020C94893185E044
:10352000809399098091380290913902A0913A02D2
:10353000B0913B028093240490932504A093260429
:10354000B09327048091190290911A02909323045A
:103550008093220484E690E090931A0280931902EB
:103560000E94345E6093141A7093151A8093161A91
:103570009093171A11E0109313028091BB0D909154
:10358000BC0DA091BD0DB091BE0D8093CF14909352
:10359000D014A093D114B093D2148091BF0D909108
:1035A000C00DA091C10DB091C20D8093D314909322
:1035B000D414A093D514B093D6148091C30D9091D8
:1035C000C40DA091C50DB091C60D8093D7149093F2
:1035D000D814A093D914B093DA148091C70D9091A8
:1035E000C80DA091C90DB091CA0D8093DB149093C2
:1035F000DC14A093DD14B093DE1410923802109204
:10360000390210923A0210923B0288E50E94BB54A4
:10361000882311F080E009C089E50E94BB54811124
:10362000F9CF8AE50E94BB5481278093040281115F
:103630000C948E3188E50E94BB54882331F089E5D3
:103640000E94BB5481110C948E318091040281112F
:103650000C94563288E50E94BB5481110C9456326A
:103660008091040281110C945C3289E50E94BB5464
:1036700081110C945C328091040281110C946232AD
:103680008AE50E94BB5481110C94623288E50E9445
:10369000BB548823D1F00E94D654672B682B692B2A
:1036A000A1F00E94E15420917B0830917C08409168
:1036B0007D0850917E080E94D8CA6093BB0D70931C
:1036C000BC0D8093BD0D9093BE0D89E50E94BB5447
:1036D0008823D1F00E94D654672B682B692BA1F068
:1036E0000E94E15420917F08309180084091810828
:1036F000509182080E94D8CA6093BF0D7093C00D8C
:103700008093C10D9093C20D8AE50E94BB5488231B
:10371000D1F00E94D654672B682B692BA1F00E9430
:10372000E15420918308309184084091850850919C
:1037300086080E94D8CA6093C30D7093C40D80930D
:10374000C50D9093C60D0E94DC9C109213028091CF
:10375000240490912504A0912604B091270480931D
:10376000380290933902A0933A02B0933B028091C1
:1037700022049091230490931A02809319020E94CC
:10378000345E6093141A7093151A8093161A9093EE
:10379000171A0E9402B50C9489311092FF190C94EB
:1037A000893181E08093FF190C94893185E40E946E
:1037B000BB54811102C00E946A64AFEECA2EA2E01F
:1037C000DA2EBBEBEB2EBDE0FB2E10E0D6018D9187
:1037D0006D010E94BB548823C1F0133061F40E9434
:1037E000E154F701608371838283938387EC9DE0CA
:1037F0000E94C7B50AC00E94E154D7016D937D9322
:103800008D939C9313970E94DC9C1F5FB4E0EB0E9A
:10381000F11C1430D9F60C9489318DE40E94BB540C
:10382000882311F40C94C12F0E94E1540E941CCCF7
:103830006C38710509F4F2C30CF0AAC0603571054B
:1038400009F41CC60CF04CC06731710509F4E9C1DC
:1038500034F56231710509F41EC69CF477FF02C08D
:103860000C948931623071050CF46DC161317105C0
:1038700011F00C94893115984698439840980C940F
:1038800089316531710509F4C0C10CF0C2C16431E0
:10389000710511F00C948931E0E2F5E06DC16B31F6
:1038A000710509F4FBC13CF46931710509F4E4C107
:1038B0000CF4CDC1E5C16E31710509F48FC234F449
:1038C0006C31710509F458C20C9489316F3171055E
:1038D00009F4F0C26A32710509F448C30C948931C5
:1038E0006A36710509F455C524F56435710509F486
:1038F000D2C554F46235710509F4C4C50CF0C6C5CF
:103900000A9A12980C9489316C35710509F411C624
:1039100034F46535710509F4F1C50C9489316836C4
:10392000710509F45DC36936710509F488C30C9407
:1039300089316337710509F482C68CF46D367105DF
:1039400009F423C46237710509F49AC66B36710510
:1039500011F00C948931109279080C9489316737F1
:10396000710509F4EDC034F46537710509F476C6C4
:103970000C9489316837710509F460C7693771059E
:1039800011F00C94893181E0809313020C948931F9
:10399000643FE1E07E0711F40C948A2A0CF054C0D5
:1039A000603D710511F40C94B425F4F46C3C710580
:1039B00011F40C94E32474F4693C710509F4C3C751
:1039C0006B3C710509F4E1C76E3B710511F00C9475
:1039D00089312BC46E3C710511F40C94652514F4E7
:1039E0000C9405250C9483256D3221E0720711F4A7
:1039F0000C9462268CF46C3D710511F40C943A26FB
:103A00006D3D710511F40C944B26613D710511F06B
:103A10000C9489310C94D6256F3241E0740711F46F
:103A20000C943E2714F40C942927603981E0780720
:103A300011F40C94872A6139714011F00C9489318A
:103A40000E9448640C948931603AA3E07A0709F433
:103A5000FCC19CF56935E2E07E0711F40C94932AD1
:103A600094F4663F21E0720711F40C94902A14F448
:103A70000C948D2A673F714011F00C9489310E949B
:103A800081570C9489316E3552E0750711F40C940E
:103A90005D2D3CF46D35724011F40C94A22C0C9405
:103AA00089316B38A3E07A0711F40C941A2E6B3924
:103AB000734009F4A1C10C9489316231E7E27E07B9
:103AC00011F40C949D2E24F5603127E2720711F455
:103AD0000C94582E14F00C945B2E673E734011F03A
:103AE0000C9489311092FF0480910E1290910F1264
:103AF000A0911012B09111128093000590930105CE
:103B0000A0930205B09303050E9403BD0C94893174
:103B1000643157E2750711F40C941E2F14F40C94C1
:103B2000EE2E653197E2790711F40C944E2F6A312D
:103B3000774211F00C948931EEEDF3E00C94852F6F
:103B4000E2E0F3E085C681E08093121080911210CC
:103B5000882311F40C9489310E94D7610E94A0B689
:103B60000E94AC720E94E03CF1CF9091C00095FFA2
:103B7000FCCF8093C600319684918111F6CF80915D
:103B8000C00085FFFCCF8AE08093C6001092081227
:103B90001092071240E050E0BA0184E490E10E94E4
:103BA00024918BE1E4E4F0E1DE01159601900D92A1
:103BB0008A95E1F780914210909143109C838B830A
:103BC00083EE92E09A838983BE016F5F7F4F81E22B
:103BD00094E00E946FABCE0101960E9489A6E2E1BB
:103BE000F5E08491882341F09091C00095FFFCCFCF
:103BF0008093C6003196F5CF8091C00085FFFCCF41
:103C00008AE08093C6000C9489310E94709B0C94CA
:103C10008931109211101092121010923F100C94D2
:103C2000893100910405109105050C5F1F4F6AE270
:103C300070E0C8010E9462CE009719F0FC01319734
:103C4000108261E0C8010E9489A90C948931809199
:103C50003F10882329F081E08093111010921210F8
:103C60000E94345E60936F047093700480937104BB
:103C7000909372040C9489310E9462AB0C94893148
:103C800080913F10882311F40C9489318091B911EF
:103C9000882311F40C9468320C94893180913F1080
:103CA0008823A9F1E6E4F2E08491882341F0909121
:103CB000C00095FFFCCF8093C6003196F5CF609190
:103CC00002127091031280910412909105124AE041
:103CD0000E947599E4E4F2E08491882341F0909188
:103CE000C00095FFFCCF8093C6003196F5CF609160
:103CF000FA117091FB118091FC119091FD114AE035
:103D00000E9475998091C00085FFFCCF11C0E4E34B
:103D1000F2E08491882341F09091C00095FFFCCFA0
:103D20008093C6003196F5CF8091C00085FFFCCF0F
:103D30008AE08093C6006091B911662311F40C9457
:103D40008931E8E2F2E08491882341F09091C0004B
:103D500095FFFCCF8093C6003196F5CF70E080E0F0
:103D600090E00E94EA998091C00085FFFCCF8AE034
:103D70008093C6000C9489318091040590910505CB
:103D80006AE270E004960E9462CE8C01892BE1F019
:103D900020911F083091200840E6429FC001439FB8
:103DA000900D11246EE470E0815E9A4F0E9462CE05
:103DB00060E270E00E9462CE0196909305058093C8
:103DC0000405F80131971082809104059091050552
:103DD00060E004960E9489A90C94893180913F107B
:103DE000882311F40C9489318091B911882311F43E
:103DF0000C947F320C9489310091040510910505D3
:103E00000C5F1F4F6AE270E0C8010E9462CE00970B
:103E100019F0FC013197108261E0C8010E9489A964
:103E200080913F10882329F081E080931110109237
:103E300012100E94345E60936F047093700480933C
:103E40007104909372040C948931809104059091CF
:103E500005056AE270E005960E9462CE8C01892B0E
:103E6000E1F020911F083091200840E6429FC001F8
:103E7000439F900D11246EE470E0815E9A4F0E9482
:103E800062CE60E270E00E9462CE019690930505DA
:103E900080930405F8013197108280910405909178
:103EA000050521E02093101060E005960E9489A985
:103EB0000C9489310E94345E60937304709374048F
:103EC000809375049093760400916F0410917004B0
:103ED0002091710430917204601B710B820B930B63
:103EE00028EE33E040E050E00E9448D6CA01B90114
:103EF0002CE330E040E050E00E9448D67F936F937F
:103F00003F932F9383E095E09F938F938E010F5FF4
:103F10001F4F1F930F930E94C7D2E2E3F6E08491F4
:103F20000FB6F894DEBF0FBECDBFE2E3F6E0882304
:103F300049F09091C00095FFFCCF8093C600319668
:103F40008491F5CFF8018191882339F09091C000D8
:103F500095FFFCCF8093C600F6CF8091C00085FF0F
:103F6000FCCF8AE08093C6000C94893183E50E94DF
:103F7000BB54882311F40C9489310E94E1540E94AF
:103F80001CCCF62EE72E862F9E2D8C0180E50E94FC
:103F9000BB54882331F00F3F110509F010F40C9445
:103FA000F03388E090E0EEE5F2E0219131912817BE
:103FB000390711F40C94893122E0E639F207A9F7A8
:103FC0008730910519F4F092790804C097FF02C078
:103FD0000C9489316F2D7E2D0E94485D0C9489319F
:103FE00088E690E00E9491A681110C94893183E5C6
:103FF0000E94BB54882311F40C9489310091121251
:104000000E94E15410E0000F111F0D56174F0E943F
:104010001CCCD8016D937C930C94893183E50E946C
:10402000BB54882311F40C9489310E94E1540E94FE
:104030001CCC70939608609395080C94893189E69E
:1040400090E00E9491A681110C948931EDEFF4E08B
:104050008491882341F09091C00095FFFCCF80931C
:10406000C6003196F5CFE0911212B4E0EB9FF0015B
:104070001124E157F74F608171818281938141E082
:104080000E94FC99EAEFF4E08491882341F090913A
:10409000C00095FFFCCF8093C6003196F5CFE0912C
:1040A0001212F0E0EE0FFF1FED56F74F60817181A5
:1040B000072E000C880B990B0E94FCD241E00E9455
:1040C000FC99E6EFF4E08491882341F09091C000E0
:1040D00095FFFCCF8093C6003196F5CF60918B0899
:1040E00070918C0880918D0890918E0841E00E941B
:1040F000FC99E3EFF4E08491882341F09091C000B3
:1041000095FFFCCF8093C6003196F5CF609195085E
:1041100070919608072E000C880B990B0E94FCD218
:1041200041E00E94FC99EFEEF4E08491882341F095
:104130009091C00095FFFCCF8093C6003196F5CFDB
:10414000E0911212F0E0E756F74F608170E080E0F6
:1041500090E00E94EA99EAEEF4E08491882341F02D
:104160009091C00095FFFCCF8093C6003196F5CFAB
:104170006091980870E080E090E00E94EA99809158
:10418000C00085FFFCCF0C94BD2F8DE690E00E940F
:1041900091A681110C94893183E08093990983E57C
:1041A0000E94BB54882371F0009112120E94E154C6
:1041B00010E0000F111F0D56174F0E941CCCF80184
:1041C000718360830E94345E2B013C0100911212C6
:1041D00010E0F801EE0FFF1FED56F74F608171817F
:1041E000072E000C880B990B0E94FCD2000F111FA8
:1041F000000F111FF801E157F74F11E020813181C5
:10420000428153810E94FECC18160CF010E08824E5
:104210008A94982C540193EE292E94E0392E2FED98
:10422000E22E24E0F22E0C945B3484E08093990912
:1042300083E50E94BB54882341F00E94E1540E9410
:104240001CCC70939608609395080E94345E4B01D5
:104250005C010CED14E058EDE52E54E0F52E64ED14
:10426000C62E64E0D62E7AE0772E80919508909144
:1042700096080297BC01990F880B990B0E94FCD2FB
:104280009B01AC0160918B0870918C0880918D0826
:1042900090918E080E94F6D287FF6FC00E94345E14
:1042A000DC01CB0188199909AA09BB09893E934011
:1042B000A105B10508F458C0E091E30D24E0E29FA8
:1042C000F0011124E157F74F608171818281938160
:1042D000F8012491ECEDF4E0222349F03091C00084
:1042E00035FFFCCF2093C60031962491F5CF42E0F4
:1042F0000E94FC99F7018491E8EDF4E0882349F0ED
:104300009091C00095FFFCCF8093C60031968491B8
:10431000F5CF6091E30D70E080E090E00E94EA99B3
:10432000F6018491E4EDF4E0882349F09091C00017
:1043300095FFFCCF8093C60031968491F5CF6091B4
:104340008B0870918C0880918D0890918E0841E0C7
:104350000E94FC998091C00085FFFCCF7092C6003E
:104360000E94345E4B015C010E94D7610E94A0B69E
:104370000E94AC720E94E03C78CF0E94345E609351
:10438000141A7093151A8093161A9093171A0C9496
:10439000893183E50E94BB54882309F461C00E94DF
:1043A000E1546B017C0180913302682F70E080E062
:1043B00090E00E94FCD29B01AC01C701B6010E94B3
:1043C0009FCE20E030E048EC52E40E94B4CB20E0E5
:1043D00030E0A9010E94F6D287FD3BC00E94E15463
:1043E0006B017C0180913302682F70E080E090E0E7
:1043F0000E94FCD29B01AC01C701B6010E949FCE76
:1044000020E030E048EC52E40E94B4CB20E030E001
:104410004FE753E40E94FECC1816ECF00E94E154E2
:104420006B017C0180913302682F70E080E090E0A6
:104430000E94FCD29B01AC01C701B6010E949FCE35
:1044400020E030E048EC52E40E94B4CB0E9421CC42
:1044500003C060E001C06FEF609379080C9489316C
:1044600080913302FFEF8F9FC001112464E670E05A
:104470000E947CCA609379080C9489310A9A129A36
:104480000C9489311092031A0C94893181E0809345
:10449000031A0C94893183E50E94BB548823A1F050
:1044A0000E94E15420E030E04AE754E40E949FCEAD
:1044B0000E9421CC6093540270935502809356025F
:1044C000909357020C94893188E50E94BB54811166
:1044D0000C943F3589E50E94BB5481110C943F3503
:1044E0008AE50E94BB5481110C943F3585E40E94FB
:1044F000BB5481110C943F350C94583583E50E94D0
:10450000BB54882311F40C9489310E94E15420E0BB
:1045100030E04AE754E40E949FCE0E9421CC609391
:10452000101A7093111A8093121A9093131A0C9404
:1045300089313FEE832E32E0932E04EF1DE04DE5EE
:10454000A42E48E0B42E2FED34E13DAF2CAF312C3A
:10455000D4018D914D010E94BB54882309F45EC0A3
:10456000B3E03B1254C00E94E1542B013C0120E017
:1045700030E040EA51E40E94F6D287FF41C0A30137
:104580009201F80160817181828193810E94B4CB94
:104590006B017C019B01AC016091490870914A0854
:1045A00080914B0890914C080E949FCE60934908DF
:1045B00070934A0880934B0890934C08A70196018A
:1045C000D5016D917D918D919C910E949FCEF501B9
:1045D0006083718382839383ACADBDAD6D917D911A
:1045E0008D919C910E94FAD2A70196010E949FCEC4
:1045F0000E9421CCECADFDAD6083718382839383F7
:10460000D8014D925D926D927C92139707C00E94E3
:10461000E154F801608371838283938333940C5F48
:104620001F4FF4E0AF0EB11C2CAD3DAD2C5F3F4FE2
:104630003DAF2CAF34E033128BCF0C948931EEE2D6
:10464000F4E08491882311F40C9489319091C00096
:1046500095FFFCCF8093C6003196F3CF809104057F
:10466000909105056AE270E005960E9462CE00977F
:1046700011F40C948931FC01319710820C9489312A
:10468000EBE2F4E08491882341F09091C00095FF23
:10469000FCCF8093C6003196F5CF6091BB0D709131
:1046A000BC0D8091BD0D9091BE0D42E00E94FC9921
:1046B000E8E2F4E08491882341F09091C00095FFF6
:1046C000FCCF8093C6003196F5CF6091BF0D7091FD
:1046D000C00D8091C10D9091C20D42E00E94FC99E5
:1046E000E5E2F4E08491882341F09091C00095FFC9
:1046F000FCCF8093C6003196F5CF6091C30D7091C9
:10470000C40D8091C50D9091C60D42E00E94FC99A8
:10471000E2E2F4E08491882341F09091C00095FF9B
:10472000FCCF8093C6003196F5CF6091C70D709194
:10473000C80D8091C90D9091CA0D42E00E94FC996C
:10474000E7E1F4E08491882341F09091C00095FF67
:10475000FCCF8093C6003196F5CF2FB7F8946091C7
:10476000AB0D7091AC0D8091AD0D9091AE0D2FBF42
:104770000E94FCD22091F40D3091F50D4091F60D80
:104780005091F70D0E94B4CB42E00E94FC99E4E105
:10479000F4E08491882341F09091C00095FFFCCF14
:1047A0008093C6003196F5CF2FB7F8946091AF0D86
:1047B0007091B00D8091B10D9091B20D2FBF0E94FC
:1047C000FCD22091F80D3091F90D4091FA0D5091E5
:1047D000FB0D0E94B4CB42E00E94FC99E1E1F4E0C1
:1047E0008491882341F09091C00095FFFCCF809385
:1047F000C6003196F5CF2FB7F8946091B30D709144
:10480000B40D8091B50D9091B60D2FBF0E94FCD2D2
:104810002091FC0D3091FD0D4091FE0D5091FF0D4A
:104820000E94B4CB42E00E94FC998091C00085FFB9
:10483000FCCF8AE08093C6000C9489311092130259
:104840000C9489319091C00095FFFCCF8093C600F5
:1048500081918111F7CF8091C00085FFFCCF8AE064
:104860008093C600E9E0F4E08491882341F09091C0
:10487000C00095FFFCCF8093C6003196F5CF009B1A
:1048800003C0E3EFF2E009C0E8EFF2E006C0909168
:10489000C00095FFFCCF8093C60081918111F7CFB6
:1048A0008091C00085FFFCCF8AE08093C600E1E0E4
:1048B000F4E08491882341F09091C00095FFFCCFF3
:1048C0008093C6003196F5CF049B03C0E3EFF2E07E
:1048D00009C0E8EFF2E006C09091C00095FFFCCF60
:1048E0008093C60081918111F7CF8091C00085FF30
:1048F000FCCF8AE08093C600E9EFF3E0849188233F
:1049000041F09091C00095FFFCCF8093C600319696
:10491000F5CF079B03C0E3EFF2E009C0E8EFF2E058
:1049200006C09091C00095FFFCCF8093C600819196
:104930008111F7CF8091C00085FFFCCF8AE0809382
:10494000C6000C9489319FEEE92E94E1F92E0FEE0A
:1049500012E024E0D22ED00ED8018D918D010E945C
:10496000BB54882349F00E94E1540E9421CCF701F6
:104970006083718382839383F4E0EF0EF11CD01285
:10498000EBCF0E9478B50C948931BDE5EB2EB8E0F1
:10499000FB2E0FEE12E084E0D82ED00ED8018D91C0
:1049A0008D010E94BB54882339F00E94E154F70125
:1049B0006083718382839383F4E0EF0EF11CD01245
:1049C000EDCF0C94893183E50E94BB54882351F0CC
:1049D0000E94E154609355087093560880935708DD
:1049E0009093580884E50E94BB54882311F40C94DA
:1049F00089310E94E1546093590870935A0880935A
:104A00005B0890935C080C94893183E50E94BB5449
:104A1000882351F00E94E1546093710870937208EA
:104A2000809373089093740884E50E94BB54882394
:104A300051F00E94E154609375087093760880935A
:104A400077089093780882E40E94BB54882361F031
:104A50000E94E1540E9421CC60936D0870936E080F
:104A600080936F089093700888E50E94BB54882358
:104A700051F00E94E1546093510870935208809362
:104A80005308909354088AE50E94BB54882351F040
:104A90000E94E15460934D0870934E0880934F0834
:104AA0009093500885E40E94BB54882311F40C9421
:104AB00089310E94E1546093490870934A088093B9
:104AC0004B0890934C080C948931FBE7EF2EF8E0EB
:104AD000FF2E0FEE12E0A3E0DA2ED00ED8018D915A
:104AE0008D010E94BB54882339F00E94E154F701E4
:104AF0006083718382839383F4E0EF0EF11CD01204
:104B0000EDCF0C94893183E50E94BB54882351F08A
:104B10000E94E15460931F0270932002809321024F
:104B20009093220286E40E94BB54882351F00E9495
:104B3000E15460931B0270931C0280931D029093BA
:104B40001E028AE50E94BB54882311F40C9489311B
:104B50000E94E154609344027093450280934602A0
:104B6000909347020C94893183E50E94BB548823BB
:104B700051F00E94E1546093F6197093F7198093F5
:104B8000F8199093F91986E40E94BB54882311F414
:104B90000C9489310E94E154609340027093410269
:104BA00080934202909343020C94893183E50E94E2
:104BB000BB54882311F40C9489310E94E1540E9463
:104BC0001CCC6115710551F06130710569F481E00B
:104BD0008093FA191092A4090C9489311092FA1951
:104BE0001092A4090C948931E2E3F6E084918823C1
:104BF00041F09091C00095FFFCCF8093C6003196A4
:104C0000F5CFE6EEF3E08491882341F09091C00067
:104C100095FFFCCF8093C6003196F5CF80911F0899
:104C20009091200820E6289FF001299FF00D112483
:104C3000E15EFA4F8191882339F09091C00095FF91
:104C4000FCCF8093C600F6CFE4EEF3E08491882396
:104C500041F09091C00095FFFCCF8093C600319643
:104C6000F5CF8091C00085FFFCCF8AE08093C6001D
:104C70000C94893183E50E94BB54882311F40C9471
:104C800089310E94E1540E941CCC70931A026093F7
:104C900019020C94893183E50E94BB54882311F4D6
:104CA0000C9489310091E30D10E00E94E154000F53
:104CB000111F0D5D1D4F0E941CCCD8016D937C937C
:104CC0000C94893180E50E94BB54882351F00E94E6
:104CD000E15460932D0270932E0280932F029093E3
:104CE000300289E40E94BB54882381F00E94E15481
:104CF0002DEB37E346E05DE30E949FCE6093070211
:104D0000709308028093090290930A0284E40E943F
:104D1000BB54882381F00E94E1542DEB37E346E039
:104D20005DE30E94B4CB6093290270932A028093C2
:104D30002B0290932C0283E40E94BB54882351F0F1
:104D40000E94E1546093000270930102809302027A
:104D5000909303020E942364EDE1F3E081918823A4
:104D600039F09091C00095FFFCCF8093C600F6CF3C
:104D7000E0E2F3E08191882339F09091C00095FF43
:104D8000FCCF8093C600F6CF60912D0270912E0269
:104D900080912F029091300242E00E94FC99E4E25F
:104DA000F3E08191882339F09091C00095FFFCCF0A
:104DB0008093C600F6CF2DEB37E346E05DE36091CC
:104DC0000702709108028091090290910A020E94E4
:104DD000B4CB42E00E94FC99E8E2F3E081918823A1
:104DE00039F09091C00095FFFCCF8093C600F6CFBC
:104DF0002DEB37E346E05DE36091290270912A02D2
:104E000080912B0290912C020E949FCE42E00E9442
:104E1000FC99ECE2F3E08191882339F09091C00095
:104E200095FFFCCF8093C600F6CF60910002709191
:104E30000102809102029091030242E00E94FC99DB
:104E40008091C00085FFFCCF8AE08093C6000C945F
:104E5000893183E50E94BB54882319F00E94E154F4
:104E600003C060E070E0CB016093250270932602DE
:104E700080932702909328020C94893185E40E9444
:104E8000BB54882341F00E94E1540E941CCC8B014A
:104E900077FF03C011C000E010E028961FAE2897EE
:104EA00029961FAE2997B6E12A96BFAF2A97E3E469
:104EB0002B96EFAF2B970EC028961FAE28972996FA
:104EC0001FAE2997FCE82A96FFAF2A9722E42B967B
:104ED0002FAF2B9783E50E94BB54882371F00E946B
:104EE000E15428966FAF289729967FAF29972A9685
:104EF0008FAF2A972B969FAF2B9783E40E94BB54CA
:104F0000882349F00E94E1540E941CCCA7967FAFF1
:104F10006EAFA79706C045E050E0A7965FAF4EAFD3
:104F2000A7970E94345E27966CAF7DAF8EAF9FAF80
:104F30002797023011051CF4E0E3F3E01BC0E3E423
:104F4000F3E08191882339F09091C00095FFFCCF68
:104F50008093C600F6CF8091C00085FFFCCF8AE029
:104F60008093C6000C9489319091C00095FFFCCFCE
:104F70008093C60081918111F7CF8091C00085FF99
:104F8000FCCF8AE08093C6000E948A5E8FE717FFFD
:104F900064C08093980827968CAD9DADAEADBFAD33
:104FA000279765968CAF9DAFAEAFBFAF6597AB96B9
:104FB0008CAF9DAFAEAFBFAFAB972C961FAE2C970B
:104FC00090E466969FAF6697ACE16796AFAF679740
:104FD000B6E46896BFAF689769961FAE69976A9600
:104FE0001FAE6A976B961FAE6B976C961FAE6C9751
:104FF0002FE730E040E050E023962CAF3DAF4EAFBE
:105000005FAF23976FE7462E512C612C712CA3962E
:105010001CAE1DAE1EAE1FAEA39731E06D963FAF26
:105020006D9761961FAE1EAE61971CAE212C312C80
:105030001EAEA8014756574FA5965FAF4EAFA59736
:10504000C801880F991F880F991FDC01A157B74F1E
:105050006F96BFAFAEAF6F9709C0F801E756F74F35
:10506000808399CF0E94AC720E94E03C80919708A7
:10507000882309F45EC10E94B56117FF0BC0B0918F
:105080008B08BCAF20908C0830908D08E0918E0882
:10509000EEAF0EC06F96AEADBFAD6F97BC91BCAF1B
:1050A0006F96EEADFFAD6F9721803280F381FEAF3A
:1050B0002CAD322D432D5EAD69966FAD69976A9622
:1050C0007FAD6A976B968FAD6B976C969FAD6C9723
:1050D0000E94FECC181674F02CAD69962FAF69971C
:1050E0006A962FAE6A976B963FAE6B973EAD6C9605
:1050F0003FAF6C972CAD322D432D5EAD2C966FAD2E
:105100002C9766967FAD669767968FAD6797689682
:105110009FAD68970E94F6D287FD0EC04CAD2C96CD
:105120004FAF2C9766962FAE669767963FAE679700
:105130005EAD68965FAF68976D968FAD6D9788236B
:1051400009F475C028962FAD289729963FAD299769
:105150002A964FAD2A972B965FAD2B976CAD722D8B
:10516000832D9EAD0E94FECC18160CF0E2C00E946A
:10517000345EDC01CB0127962CAD3DAD4EAD5FAD6D
:105180002797821B930BA40BB50B89389341A1057C
:10519000B10508F4CEC0D301C20123962CAD3DADBC
:1051A0004EAD5FAD2397821B930BA40BB50BB5954A
:1051B000A7959795879517FF03C08093980805C01A
:1051C000A596EEADFFADA59780830E94345E6596EF
:1051D0006CAF7DAF8EAF9FAF65979B01AC012796FB
:1051E0008CAD9DADAEADBFAD2797281B390B4A0BDB
:1051F0005B0BA3962CAF3DAF4EAF5FAFA397289646
:105200009FAD289769969FAF69972996AFAD29976B
:105210006A96AFAF6A972A96BFAD2A976B96BFAFD3
:105220006B972B96EFAD2B976C96EFAF6C972896FC
:105230002FAD289729963FAD29972A964FAD2A97EB
:105240002B965FAD2B976CAD722D832D9EAD0E947A
:10525000F6D287FD02C00C9437370E94345EDC0121
:10526000CB0165962CAD3DAD4EAD5FAD6597821B14
:10527000930BA40BB50B89389341A105B10510F42C
:105280000C9437370E94345E27966CAF7DAF8EAF9B
:105290009FAF2797DC01CB0165962CAD3DAD4EADA0
:1052A0005FAD6597821B930BA40BB50B61964EAD5A
:1052B0005FAD61971416150614F40C945E352396B1
:1052C0008CAD9DADAEADBFAD2397840D951DA61DD4
:1052D000B71DB595A7959795879517FD02C00C94B6
:1052E00030378093980861962EAD3FAD61972F5F60
:1052F0003F4F61963FAF2EAF619728963FAD2897FD
:105300002C963FAF2C9729964FAD299766964FAFB5
:1053100066972A965FAD2A9767965FAF67972B9639
:105320008FAD2B9768968FAF689791E06D969FAF82
:105330006D9720E030E040EA51E428966FAD289761
:1053400029967FAD29972A968FAD2A972B969FADE8
:105350002B970E94D8CA9B01AC016CAD722D832D96
:105360009EAD0E94FECC1816ACF4EFE0F3E0849101
:10537000882341F09091C00095FFFCCF8093C60038
:105380003196F5CF8091C00085FFFCCF8AE08093F5
:10539000C600BFC70E94345EDC01CB01AB962CADCA
:1053A0003DAD4EAD5FADAB97821B930BA40BB50B20
:1053B000813D9740A105B10508F44EC017FF10C00C
:1053C000E0909808F12CE9E0F3E084918823D9F08B
:1053D0009091C00095FFFCCF8093C6003196F5CF29
:1053E000A596AEADBFADA597EC90F12CE3E0F3E050
:1053F0008491882341F09091C00095FFFCCF809369
:10540000C6003196F5CF42E06CAD722D832D9EAD76
:105410000E94FC99EFEFF2E08491882341F0909193
:10542000C00095FFFCCF8093C6003196F5CFB70141
:10543000FF0C880B990B0E94EA998091C00085FFB0
:10544000FCCF8AE08093C6000E94345EAB966CAFBE
:105450007DAF8EAF9FAFAB970E94345E6B017C0136
:105460000E94345E65968CAC9DACAEACBFAC6597CB
:1054700027962CAD3DAD4EAD5FAD2797820E931EA6
:10548000A41EB51EC818D908EA08FB08DC01CB0128
:105490008C0D9D1DAE1DBF1D81389F44A241B105DD
:1054A000A8F0E2EEF2E08491882341F09091C000F0
:1054B00095FFFCCF8093C6003196F5CF8091C00058
:1054C00085FFFCCF8AE08093C60023C761964EAD6E
:1054D0005FAD6197A7968EAD9FADA797841795078F
:1054E0000CF0C0CDE6E9F2E08491882341F0909180
:1054F000C00095FFFCCF8093C6003196F5CF809118
:10550000C00085FFFCCF8AE08093C60002C70E94DE
:105510006A64FFC60E94525BFCC60E94425AF9C6EA
:105520000E941E56F6C60E946A640091BB0D10913F
:10553000BC0D2091BD0D3091BE0D09A31AA32BA364
:105540003CA34091BF0D5091C00D6091C10D709171
:10555000C20D4DA35EA36FA378A78091C30D909158
:10556000C40DA091C50DB091C60D89A79AA7ABA790
:10557000BCA7C090C70DD090C80DE090C90DF090A9
:10558000CA0D09831A832B833C834D835E836F830B
:10559000788789879A87AB87BC87CD86DE86EF863A
:1055A000F88AE091E30D94E0E99FF0011124E152C3
:1055B000F24F208131814281538160911F027091AD
:1055C000200280912102909122020E94B4CB9B0183
:1055D000AC01C701B6010E94D7CA6DA77EA78FA7ED
:1055E00098AB20E030E040E752E460911B027091FC
:1055F0001C0280911D0290911E020E94B4CBA3EE6A
:10560000CA2EADE0DA2E7B018C019E01235D3F4F57
:10561000AE01475D5F4FBE016B5D7F4FCE0181964E
:105620000E94673E8AE50E94BB54882371F00E9465
:10563000E1549B01AC0169A57AA58BA59CA50E94AC
:10564000D8CA69A77AA78BA79CA7E3EECE2EEDE078
:10565000DE2EE12CF12C00E212E49E01235D3F4F8F
:10566000AE01475D5F4FBE016B5D7F4FCE018196FE
:105670000E94673E88E50E94BB54882331F00E9457
:10568000E15469A37AA38BA39CA389E50E94BB5430
:10569000882331F00E94E1546DA37EA38FA398A7C5
:1056A00063EEC62E6DE0D62EE12CF12C08EC12E450
:1056B0009E01235D3F4FAE01475D5F4FBE016B5DB5
:1056C0007F4FCE0181960E94673E8CE40E94BB54BE
:1056D0008823E1F00E94E154E091E30DA4E0EA9F09
:1056E000F0011124E152F24F208131814281538136
:1056F0000E94B4CB9B01AC016DA57EA58FA598A996
:105700000E94D7CA6DA77EA78FA798AB20E030E094
:1057100040E752E460911B0270911C0280911D02CF
:1057200090911E020E94B4CB53EEC52E5DE0D52EA3
:105730007B018C019E01235D3F4FAE01475D5F4FB2
:10574000BE016B5D7F4FCE0181960E94673E89A1AD
:105750009AA1ABA1BCA18093BB0D9093BC0DA0936B
:10576000BD0DB093BE0D8DA19EA1AFA1B8A5809334
:10577000BF0D9093C00DA093C10DB093C20D89A52C
:105780009AA5ABA5BCA58093C30D9093C40DA0931F
:10579000C50DB093C60D8DA59EA5AFA5B8A98093E4
:1057A000C70D9093C80DA093C90DB093CA0D0E9468
:1057B0006A64409A80911210882349F00E94D76150
:1057C0000E94A0B60E94AC720E94E03CF3CF87EC2E
:1057D0009DE00E94C7B58CE40E94BB548823E1F091
:1057E0000E94E154E091E30DB4E0EB9FF00111243D
:1057F000E152F24F20813181428153810E94B4CB2A
:105800009B01AC016DA57EA58FA598A90E94D8CA61
:105810006DA77EA78FA798AB20E030E040E752E469
:1058200060911B0270911C0280911D0290911E02DA
:105830000E94B4CB43EEC42E4DE0D42E7B018C01EC
:105840009E01235D3F4FAE01475D5F4FBE016B5D23
:105850007F4FCE0181960E94673E80911110882370
:1058600009F457C5E12CF12C08EC12E49E01235DEC
:105870003F4FAE01475D5F4FBE016B5F7F4FCE0173
:1058800001960E94673EE12CF12C00E212E49E0199
:10589000235D3F4FAE01475F5F4FBE016B5F7F4FA0
:1058A000CE0101960E94673E20E030E040E752E4DE
:1058B00060911B0270911C0280911D0290911E024A
:1058C0000E94B4CB7B018C019E01235F3F4FAE0150
:1058D000475F5F4FBE016B5F7F4FCE0101960E9415
:1058E000673E89819A81AB81BC818093BB0D909387
:1058F000BC0DA093BD0DB093BE0D8D819E81AF8177
:10590000B8858093BF0D9093C00DA093C10DB09347
:10591000C20D89859A85AB85BC858093C30D909314
:10592000C40DA093C50DB093C60D8D859E85AF8522
:10593000B8898093C70D9093C80DA093C90DB093FB
:10594000CA0DE7C483E50E94BB54882341F00E943E
:10595000E1540E9421CC6A3018F069E001C060E097
:10596000262F30E046E4649FF0011124ED5EFD4EE9
:105970008091190290911A029183808380919508F9
:10598000909196089583848380917908868380918D
:10599000930890919408938382838091230290913D
:1059A000240290878783AFEEB4E156E4659FF0014F
:1059B00011248F01045E1D4E8DE598E04D915D919F
:1059C0006D917D91F80141935193619371938F0192
:1059D000FC014191519161917191CF01F80144878E
:1059E000558766877787F4E1AF3FBF0739F786E4CD
:1059F000829FF001839FF00D1124ED5EFD4E80919A
:105A0000550890915608A0915708B091580881A761
:105A100092A7A3A7B4A78091710890917208A09152
:105A20007308B091740885A796A7A7A7B0AB80911B
:105A3000750890917608A0917708B091780881ABAD
:105A400092ABA3ABB4AB80916D0890916E08A0911E
:105A50006F08B091700885AB96ABA7ABB0AF8091E3
:105A6000510890915208A0915308B091540881AF09
:105A700092AFA3AFB4AFDF01DD9640914D085091D6
:105A80004E0860914F08709150084D935D936D934F
:105A90007C93139714964091490850914A0860915D
:105AA0004B0870914C084D935D936D937C931397C5
:105AB000EB5BFF4F81E080832CC483E50E94BB54E5
:105AC000882341F00E94E1540E9421CC6A3018F0F2
:105AD00069E001C060E0262F30E046E4649FF001F9
